:020000040800F2
:1000000000800120B90900082D0900083309000803
:10001000390900083F0900084509000800000000F0
:100020000000000000000000000000004B09000874
:100030005909000800000000670900087509000858
:10004000090A0008090A0008090A0008090A000844
:10005000090A0008090A0008090A0008090A000834
:10006000090A0008090A0008090A0008090A000824
:10007000090A0008090A0008090A0008090A000814
:10008000090A0008090A00088109000800000000A8
:10009000000000000000000000000000090A000845
:1000A000090A0008090A0008090A0008090A0008E4
:1000B000090A0008090A0008090A0008090A0008D4
:1000C000090A0008090A0008090A0008090A0008C4
:1000D000090A0008090A0008090A000800000000CF
:1000E000090A0008090A0008090A000800000000BF
:1000F000000000000000000000000000090A0008E5
:1001000000000000090A0008090A0008090A00089E
:1001100000000000000000000000000000000000DF
:10012000090A0008090A0008090A0008090A000863
:10013000090A0008000000000000000000000000A4
:10014000000000000000000000000000090A000894
:10015000090A0008090A0008090A0008090A000833
:10016000090A0008090A0008000000000000000059
:10017000000000000000000000000000000000007F
:1001800000000000090A0008000000000000000054
:04019000090A000850
:1001940010B5054C237833B9044B13B10448AFF3BD
:1001A40000800123237010BD0C000020000000001B
:1001B400A821000808B5034B1BB103490348AFF35A
:1001C400008008BD0000000010000020A8210008E5
:1001D40053B94AB9002908BF00281CBF4FF0FF31AA
:1001E4004FF0FF3000F074B9ADF1080C6DE904CEA6
:1001F40000F006F8DDF804E0DDE9022304B07047FE
:100204002DE9F047089D04468E46002B4DD18A42C5
:10021400944669D9B2FA82F252B101FA02F3C2F1F8
:10022400200120FA01F10CFA02FC41EA030E944089
:100234004FEA1C48210CBEFBF8F61FFA8CF708FBAA
:1002440016E341EA034306FB07F199420AD91CEB82
:10025400030306F1FF3080F01F81994240F21C81B4
:10026400023E63445B1AA4B2B3FBF8F008FB1033FC
:1002740044EA034400FB07F7A7420AD91CEB040431
:1002840000F1FF3380F00A81A74240F20781644401
:10029400023840EA0640E41B00261DB1D440002386
:1002A400C5E900433146BDE8F0878B4209D9002DEA
:1002B40000F0EF800026C5E9000130463146BDE874
:1002C400F087B3FA83F6002E4AD18B4202D38242DE
:1002D40000F2F980841A61EB030301209E46002D8D
:1002E400E0D0C5E9004EDDE702B9FFDEB2FA82F2E2
:1002F400002A40F09280A1EB0C014FEA1C471FFA40
:100304008CFE0126200CB1FBF7F307FB131140EA26
:1003140001410EFB03F0884208D91CEB010103F1F3
:10032400FF3802D2884200F2CB804346091AA4B2B5
:10033400B1FBF7F007FB101144EA01440EFB00FE89
:10034400A64508D91CEB040400F1FF3102D2A645EE
:1003540000F2BB800846A4EB0E0440EA03409CE78D
:10036400C6F12007B34022FA07FC4CEA030C20FA3A
:1003740007F401FA06F31C43F9404FEA1C4900FA5A
:1003840006F3B1FBF9F8200C1FFA8CFE09FB1811D7
:1003940040EA014108FB0EF0884202FA06F20BD94A
:1003A4001CEB010108F1FF3A80F08880884240F29A
:1003B4008580A8F102086144091AA4B2B1FBF9F0DE
:1003C40009FB101144EA014100FB0EFE8E4508D9D9
:1003D4001CEB010100F1FF346CD28E456AD902385E
:1003E400614440EA0840A0FB0294A1EB0E01A14243
:1003F400C846A64656D353D05DB1B3EB080261EBB1
:100404000E0101FA07F722FA06F3F1401F43C5E98A
:10041400007100263146BDE8F087C2F12003D840C0
:100424000CFA02FC21FA03F3914001434FEA1C4702
:100434001FFA8CFEB3FBF7F007FB10360B0C43EAF4
:10044400064300FB0EF69E4204FA02F408D91CEBA4
:10045400030300F1FF382FD29E422DD902386344A2
:100464009B1B89B2B3FBF7F607FB163341EA034142
:1004740006FB0EF38B4208D91CEB010106F1FF3891
:1004840016D28B4214D9023E6144C91A46EA004688
:1004940038E72E46284605E70646E3E61846F8E61A
:1004A4004B45A9D2B9EB020864EB0C0E0138A3E763
:1004B4004646EAE7204694E74046D1E7D0467BE744
:1004C400023B614432E7304609E76444023842E7BC
:1004D400704700BF80B584B000AF78607B681B684C
:1004E4004E4A934240F096804D4800F011FDF8606A
:1004F400FB68B3F54D7F18D200224FF48051494870
:1005040001F0E6F900224FF40051464801F0E0F909
:1005140000224FF48041434801F0DAF900224FF4FD
:100524000041404801F0D4F971E0FB6840F2666292
:10053400934218D801224FF480513A4801F0C8F987
:1005440000224FF40051374801F0C2F900224FF461
:100554008041344801F0BCF900224FF40041314895
:1005640001F0B6F953E0FB6840F69912934218D8AB
:1005740001224FF480512B4801F0AAF901224FF4D3
:100584000051284801F0A4F900224FF48041254885
:1005940001F09EF900224FF40041224801F098F93D
:1005A40035E0FB6840F6CC42934218D801224FF460
:1005B40080511C4801F08CF901224FF40051194874
:1005C40001F086F901224FF48041164801F080F9C8
:1005D40000224FF40041134801F07AF917E0012298
:1005E4004FF480510F4801F073F901224FF4005188
:1005F4000C4801F06DF901224FF48041094801F0E3
:1006040067F901224FF40041064801F061F90448FA
:1006140000F0B0FA00BF1037BD4680BD0020014095
:1006240028000020000C024080B500AF00F0ECF977
:1006340000F00AF800F0BAF800F066F8014800F09B
:1006440099FAFEE72800002080B594B000AF07F1C6
:10065400200330220021184601F09CFD07F10C0311
:1006640000221A605A609A60DA601A610023BB6043
:10067400234B1B6C224A43F080531364204B1B6CA6
:1006840003F08053BB60BB6800237B601D4B1B6879
:1006940023F440431B4A43F400431360194B1B6883
:1006A40003F440437B607B6802233B620123FB62CB
:1006B40010233B630023BB6307F12003184601F0BA
:1006C40021F90346002B01D000F0B4F80F23FB609E
:1006D40000233B6100237B610023BB610023FB619A
:1006E40007F10C030021184601F084FB0346002B9C
:1006F40001D000F09FF800BF5037BD4680BD00BF59
:10070400003802400070004080B584B000AF3B4622
:1007140000221A605A609A60DA60214B214A1A60FA
:100724001F4B4FF440325A601D4B00229A601C4B01
:1007340000221A611A4B00221A76194B002283F800
:100744002020174B0022DA62154B174A9A62144B89
:100754000022DA60124B0122DA61114B002283F885
:1007640030200F4B01225A610D4800F0BFF90346B7
:10077400002B01D000F05EF803233B6001237B6073
:100784000723BB603B461946054800F0E3FB0346DC
:10079400002B01D000F04EF800BF1037BD4680BDDD
:1007A40028000020002001400100000F80B588B01F
:1007B40000AF07F10C0300221A605A609A60DA60F5
:1007C4001A610023BB60194B1B6B184A43F00103E9
:1007D4001363164B1B6B03F00103BB60BB68002360
:1007E4007B60124B1B6B114A43F0080313630F4BDE
:1007F4001B6B03F008037B607B6800224FF470419D
:100804000B4801F065F84FF47043FB6001233B6132
:1008140000237B610023BB6107F10C0319460448E4
:1008240000F0D2FE00BF2037BD4680BD0038024034
:10083400000C024080B400AF72B600BFFEE70000B7
:1008440080B483B000AF00237B60104B5B6C0F4A15
:1008540043F4804353640D4B5B6C03F480437B602F
:100864007B6800233B60094B1B6C084A43F08053B0
:100874001364064B1B6C03F080533B603B6800BF62
:100884000C37BD465DF8047B704700BF003802405A
:1008940080B58AB000AF786007F1140300221A60B3
:1008A4005A609A60DA601A617B681B681B4A93423B
:1008B4002FD100233B611A4B5B6C194A43F48073BC
:1008C4005364174B5B6C03F480733B613B690023F7
:1008D400FB60134B1B6B124A43F001031363104B71
:1008E4001B6B03F00103FB60FB6808237B6103239C
:1008F400BB610023FB6107F114031946094800F0AA
:1009040063FE00220021122000F027FE122000F0D6
:1009140040FE00BF2837BD4680BD00BF0020014017
:10092400003802400000024080B400AFFEE780B40B
:1009340000AFFEE780B400AFFEE780B400AFFEE78F
:1009440080B400AFFEE780B400AF00BFBD465DF8E1
:10095400047B704780B400AF00BFBD465DF8047BE4
:10096400704780B400AF00BFBD465DF8047B70479C
:1009740080B500AF00F09AF800BF80BD80B500AF2D
:10098400024800F0B5F900BF80BD00BF2800002078
:1009940080B400AF064BD3F88830054A43F47003A3
:1009A400C2F8883000BFBD465DF8047B704700BFC5
:1009B40000ED00E0DFF834D00D480E490E4A002364
:1009C40002E0D458C4500433C4188C42F9D30B4AFF
:1009D4000B4C002301E013600432A242FBD3FFF767
:1009E400D7FF01F0B3FBFFF71FFE70470080012023
:1009F400000000200C000020E02100080C00002072
:100A040074000020FEE7000080B500AF0E4B1B68A9
:100A14000D4A43F4007313600B4B1B680A4A43F4FA
:100A240080631360084B1B68074A43F480731360A8
:100A3400032000F087FD0F2000F008F8FFF700FF07
:100A44000023184680BD00BF003C024080B582B040
:100A540000AF7860124B1A68124B1B7819464FF49A
:100A64007A73B3FBF1F3B2FBF3F3184600F09FFD86
:100A74000346002B01D001230EE07B680F2B0AD81C
:100A8400002279684FF0FF3000F067FD064A7B686A
:100A94001360002300E0012318460837BD4680BDDB
:100AA40000000020080000200400002080B400AFF3
:100AB400064B1B781A46064B1B681344044A136002
:100AC40000BFBD465DF8047B704700BF08000020EE
:100AD4007000002080B400AF034B1B681846BD466D
:100AE4005DF8047B704700BF7000002080B584B0BF
:100AF40000AF78600023FB737B68002B01D10123D6
:100B040033E07B681B6C002B09D17868FFF7C0FECB
:100B14007B6800225A647B68002283F83C207B684F
:100B24001B6C03F01003002B18D17B681B6C23F49F
:100B3400885323F0020343F002027B681A64786846
:100B440000F02AFB7B6800225A647B681B6C23F04C
:100B5400030343F001027B681A6401E00123FB7381
:100B64007B68002283F83C20FB7B18461037BD4687
:100B740080BD000080B485B000AF78600023BB6006
:100B84007B6893F83C30012B01D10223A1E07B6800
:100B9400012283F83C207B681B689B6803F00103F7
:100BA400012B18D07B681B689A687B681B6842F02D
:100BB40001029A604A4B1B684A4AA2FB03239A0C1F
:100BC40013465B001344BB6002E0BB68013BBB609F
:100BD400BB68002BF9D17B681B689B6803F0010399
:100BE400012B69D17B681B6C23F4E06323F00103C0
:100BF40043F480727B681A647B681B685B6803F447
:100C04008063002B07D07B681B6C23F4405343F4B0
:100C140080527B681A647B681B6C03F48053B3F5C1
:100C2400805F06D17B685B6C23F006027B685A64A4
:100C340002E07B6800225A647B68002283F83C202F
:100C4400294BFB607B681B686FF022021A607B688B
:100C54001B685B687A68126843F0806343F0200382
:100C64005360FB685B6803F01F03002B0FD17B68A4
:100C74001B689B6803F04053002B29D17B681B68D9
:100C84009A687B681B6842F080429A6020E07B6827
:100C94001B68164A93421BD17B681B689B6803F050
:100CA4004053002B14D17B681B689A687B681B68CF
:100CB40042F080429A600BE07B681B6C43F01002A8
:100CC4007B681A647B685B6C43F001027B685A643E
:100CD400002318461437BD465DF8047B704700BFF7
:100CE4000000002083DE1B4300230140002001405C
:100CF40080B586B000AF786000237B6100233B6140
:100D04007B681B681B68FB607B681B685B68BB6057
:100D1400FB6803F002037B61BB6803F020033B61C3
:100D24007B69002B49D03B69002B46D07B681B6C48
:100D340003F01003002B05D17B681B6C43F4007295
:100D44007B681A647B681B689B6803F04053002B24
:100D54002BD17B681B7E002B27D17B681B68DB6A49
:100D640003F47003002B06D07B681B689B6803F4B4
:100D74008063002B19D17B681B685A687B681B68E9
:100D840022F020025A607B681B6C23F480727B681B
:100D94001A647B681B6C03F48053002B05D17B68B9
:100DA4001B6C43F001027B681A647868FFF792FBBE
:100DB4007B681B686FF012021A60FB6803F004037F
:100DC4007B61BB6803F080033B617B69002B57D0D8
:100DD4003B69002B54D07B681B6C03F01003002B81
:100DE40005D17B681B6C43F400527B681A647B68F2
:100DF4001B689B6803F44013002B39D17B681B6884
:100E04009B6B03F44013002B06D07B681B689B6824
:100E140003F48063002B2BD17B681B685B6803F4AD
:100E24008063002B24D17B681B689B6803F04053CC
:100E3400002B1DD17B681B7E002B19D17B681B689E
:100E44005A687B681B6822F080025A607B681B6CBE
:100E540023F480527B681A647B681B6C03F48073F0
:100E6400002B05D17B681B6C43F001027B681A647C
:100E7400786800F08DFA7B681B686FF00C021A60CA
:100E8400FB6803F001037B61BB6803F040033B6133
:100E94007B69002B17D03B69002B14D07B681B683F
:100EA4001B6803F00103012B0DD17B681B6C43F419
:100EB40080327B681A64786800F037F87B681B68B6
:100EC4006FF001021A60FB6803F020037B61BB68CA
:100ED40003F080633B617B69002B15D03B69002BD9
:100EE40012D07B685B6C43F002027B685A647B68B7
:100EF4001B686FF020021A60786800F020F87B68A5
:100F04001B686FF020021A6000BF1837BD4680BD11
:100F140080B483B000AF78607B681B68DB6C1846D4
:100F24000C37BD465DF8047B704780B483B000AFD6
:100F3400786000BF0C37BD465DF8047B704780B411
:100F440083B000AF786000BF0C37BD465DF8047B0A
:100F54007047000080B485B000AF7860396000232A
:100F6400BB607B6893F83C30012B01D1022305E17F
:100F74007B68012283F83C203B681B68092B25D938
:100F84007B681B68D9683B681B689BB21A4613468A
:100F94005B0013441E3B072202FA03F3DA437B6827
:100FA4001B680A40DA607B681B68D9683B689A68EA
:100FB4003B681B689BB2184603465B0003441E3B18
:100FC4009A407B681B680A43DA6022E07B681B68EE
:100FD40019693B681B689BB21A4613465B001344AD
:100FE400072202FA03F3DA437B681B680A401A619A
:100FF4007B681B6819693B689A683B681B689BB2ED
:10100400184603465B0003449A407B681B680A4306
:101014001A613B685B68062B24D87B681B68596B94
:101024003B685A6813469B001344053B1F2202FA8F
:1010340003F3DA437B681B680A405A637B681B68C6
:10104400596B3B681B689BB218463B685A68134649
:101054009B001344053B00FA03F27B681B680A43B8
:101064005A634CE03B685B680C2B24D87B681B6894
:10107400196B3B685A6813469B001344233B1F2299
:1010840002FA03F3DA437B681B680A401A637B683D
:101094001B68196B3B681B689BB218463B685A680F
:1010A40013469B001344233B00FA03F27B681B683E
:1010B4000A431A6323E07B681B68D96A3B685A6851
:1010C40013469B001344413B1F2202FA03F3DA4305
:1010D4007B681B680A40DA627B681B68D96A3B68D4
:1010E4001B689BB218463B685A6813469B0013441E
:1010F400413B00FA03F27B681B680A43DA62224B25
:10110400FB607B681B68214A934209D13B681B68DA
:10111400122B05D1FB685B6843F48002FB685A60BC
:101124007B681B68194A934223D13B681B68102BC8
:1011340003D03B681B68112B1BD1FB685B6843F42D
:101144000002FB685A603B681B68102B11D1104BDE
:101154001B68104AA2FB03239A0C13469B001344FA
:101164005B00BB6002E0BB68013BBB60BB68002B5B
:10117400F9D17B68002283F83C20002318461437F9
:10118400BD465DF8047B7047002301400020014008
:101194000000002083DE1B4380B485B000AF78607C
:1011A400794BFB60FB685B6823F44032FB685A6050
:1011B400FB685A687B685B681A43FB685A607B6803
:1011C4001B685A687B681B6822F480725A607B68CB
:1011D4001B6859687B681B691A027B681B680A4391
:1011E4005A607B681B685A687B681B6822F04072EF
:1011F4005A607B681B6859687B689A687B681B68BF
:101204000A435A607B681B689A687B681B6822F4EF
:1012140000629A607B681B6899687B68DA687B68FF
:101224001B680A439A607B689B6A584A934222D09F
:101234007B681B689A687B681B6822F070629A60FE
:101244007B681B6899687B689A6A7B681B680A4399
:101254009A607B681B689A687B681B6822F040521E
:101264009A607B681B6899687B68DA6A7B681B688C
:101274000A439A600FE07B681B689A687B681B6866
:1012840022F070629A607B681B689A687B681B68AE
:1012940022F040529A607B681B689A687B681B68DE
:1012A40022F002029A607B681B6899687B681B7E47
:1012B4005A007B681B680A439A607B6893F8203065
:1012C400002B1BD07B681B685A687B681B6842F440
:1012D40000625A607B681B685A687B681B6822F44A
:1012E40060425A607B681B6859687B685B6A013B93
:1012F4005A037B681B680A435A6007E07B681B68D3
:101304005A687B681B6822F400625A607B681B6819
:10131400DA6A7B681B6822F47002DA627B681B68F5
:10132400D96A7B68DB69013B1A057B681B680A4341
:10133400DA627B681B689A687B681B6822F4007217
:101344009A607B681B6899687B6893F830305A020E
:101354007B681B680A439A607B681B689A687B6891
:101364001B6822F480629A607B681B6899687B68BA
:101374005B699A027B681B680A439A6000BF143752
:10138400BD465DF8047B7047002301400100000F57
:1013940080B483B000AF786000BF0C37BD465DF801
:1013A400047B704780B485B000AF78607B6803F03D
:1013B4000703FB600C4BDB68BB60BA684FF6FF03A6
:1013C4001340BB60FB681A02BB68134343F0BF635E
:1013D40043F40033BB60044ABB68D36000BF1437D6
:1013E400BD465DF8047B704700ED00E080B400AFBB
:1013F400044BDB681B0A03F007031846BD465DF87F
:10140400047B704700ED00E080B483B000AF034676
:10141400FB7197F90730002B0BDBFB7903F01F02FC
:10142400074997F907305B09012000FA02F241F8F5
:10143400232000BF0C37BD465DF8047B704700BF16
:1014440000E100E080B483B000AF03463960FB7173
:1014540097F90730002B0ADB3B68DAB20C4997F99D
:1014640007301201D2B20B4483F800230AE03B6830
:10147400DAB20849FB7903F00F03043B1201D2B23C
:101484000B441A7600BF0C37BD465DF8047B7047E9
:1014940000E100E000ED00E080B489B000AFF86046
:1014A400B9607A60FB6803F00703FB61FB69C3F171
:1014B4000703042B28BF0423BB61FB690433062BF9
:1014C40002D9FB69033B00E000237B614FF0FF324C
:1014D400BB6902FA03F3DA43BB681A407B699A409A
:1014E4004FF0FF317B6901FA03F3D9437B680B406A
:1014F400134318462437BD465DF8047B704700004B
:1015040080B582B000AF78607B68013BB3F1807F27
:1015140001D301230FE00A4A7B68013B53600F218A
:101524004FF0FF30FFF78EFF054B00229A60044B0B
:1015340007221A60002318460837BD4680BD00BF45
:1015440010E000E080B582B000AF78607868FFF703
:1015540029FF00BF0837BD4680BD80B586B000AF07
:101564000346B9607A60FB7300237B61FFF73EFF9B
:1015740078617A68B9687869FFF78EFF024697F94F
:101584000F3011461846FFF75DFF00BF1837BD4600
:1015940080BD80B582B000AF0346FB7197F9073078
:1015A4001846FFF731FF00BF0837BD4680BD80B540
:1015B40082B000AF78607868FFF7A2FF0346184650
:1015C4000837BD4680BD000080B489B000AF7860A4
:1015D400396000237B6100233B610023BB6100234E
:1015E400FB6159E10122FB6902FA03F37B613B6869
:1015F4001B687A6913403B613A697B699A4240F0FF
:1016040048813B685B6803F00303012B05D03B680A
:101614005B6803F00303022B30D17B689B68BB61DA
:10162400FB695B00032202FA03F3DB43BA6913404C
:10163400BB613B68DA68FB695B0002FA03F3BA69D1
:101644001343BB617B68BA699A607B685B68BB6162
:101654000122FB6902FA03F3DB43BA691340BB615D
:101664003B685B681B0903F00102FB6902FA03F3A0
:10167400BA691343BB617B68BA695A603B685B68AB
:1016840003F00303032B17D07B68DB68BB61FB69A2
:101694005B00032202FA03F3DB43BA691340BB6124
:1016A4003B689A68FB695B0002FA03F3BA69134367
:1016B400BB617B68BA69DA603B685B6803F003036B
:1016C400022B23D1FB69DA087B68083253F82230F5
:1016D400BB61FB6903F007039B000F2202FA03F3CB
:1016E400DB43BA691340BB613B681A69FB6903F0C9
:1016F40007039B0002FA03F3BA691343BB61FB6956
:10170400DA087B680832B96943F822107B681B68E1
:10171400BB61FB695B00032202FA03F3DB43BA6992
:101724001340BB613B685B6803F00302FB695B0029
:1017340002FA03F3BA691343BB617B68BA691A609E
:101744003B685B6803F44033002B00F0A280002365
:10175400FB60574B5B6C564A43F480435364544BD1
:101764005B6C03F48043FB60FB68524AFB699B0893
:10177400023352F82330BB61FB6903F003039B007F
:101784000F2202FA03F3DB43BA691340BB617B689F
:10179400494A934219D07B68484A934213D07B68E4
:1017A400474A93420DD07B68464A934207D07B68F0
:1017B400454A934201D1042308E0072306E00323AA
:1017C40004E0022302E0012300E00023FA6902F0AE
:1017D400030292009340BA691343BB613549FB6924
:1017E4009B080233BA6941F82320384B9B68BB61DC
:1017F4003B69DB43BA691340BB613B685B6803F434
:101804008013002B03D0BA693B691343BB612F4A91
:10181400BB6993602D4BDB68BB613B69DB43BA69F1
:101824001340BB613B685B6803F40013002B03D0D7
:10183400BA693B691343BB61244ABB69D360234B38
:101844005B68BB613B69DB43BA691340BB613B68BE
:101854005B6803F40033002B03D0BA693B6913437C
:10186400BB611A4ABB695360184B1B68BB613B6977
:10187400DB43BA691340BB613B685B6803F48033A4
:10188400002B03D0BA693B691343BB610F4ABB69A0
:101894001360FB690133FB61FB690F2B7FF6A2AE7A
:1018A40000BF00BF2437BD465DF8047B704700BF0E
:1018B40000380240003801400000024000040240A9
:1018C40000080240000C024000100240003C0140AD
:1018D40080B483B000AF78600B467B8013467B7086
:1018E4007B78002B03D07A887B689A6103E07B883D
:1018F4001A047B689A6100BF0C37BD465DF8047B0F
:101904007047000080B586B000AF78607B68002B1C
:1019140001D1012367E27B681B6803F00103002BFC
:1019240075D0884B9B6803F00C03042B0CD0854BBB
:101934009B6803F00C03082B12D1824B5B6803F401
:101944008003B3F5800F0BD17E4B1B6803F4003387
:10195400002B5BD07B685B68002B57D1012342E2EC
:101964007B685B68B3F5803F06D1764B1B68754A8C
:1019740043F4803313601DE07B685B68B3F5A02FEC
:101984000CD1704B1B686F4A43F4802313606D4B7A
:101994001B686C4A43F4803313600BE0694B1B688B
:1019A400684A23F480331360664B1B68654A23F44A
:1019B400802313607B685B68002B13D0FFF78AF8E1
:1019C400386108E0FFF786F802463B69D31A642BB6
:1019D40001D9032307E25B4B1B6803F40033002B9C
:1019E400F0D014E0FFF776F8386108E0FFF772F8FA
:1019F40002463B69D31A642B01D90323F3E1514B0B
:101A04001B6803F40033002BF0D100E000BF7B68B7
:101A14001B6803F00203002B63D04A4B9B6803F05E
:101A24000C03002B0BD0474B9B6803F00C03082BD3
:101A34001CD1444B5B6803F48003002B16D1414B4B
:101A44001B6803F00203002B05D07B68DB68012BC5
:101A540001D00123C7E13B4B1B6823F0F8027B68EC
:101A64001B69DB00374913430B603AE07B68DB6892
:101A7400002B20D0344B01221A60FFF72BF8386179
:101A840008E0FFF727F802463B69D31A022B01D975
:101A94000323A8E12B4B1B6803F00203002BF0D0B7
:101AA400284B1B6823F0F8027B681B69DB0025497F
:101AB40013430B6015E0244B00221A60FFF70AF869
:101AC400386108E0FFF706F802463B69D31A022B97
:101AD40001D9032387E11B4B1B6803F00203002B8E
:101AE400F0D17B681B6803F00803002B36D07B68B9
:101AF4005B69002B16D0154B01221A60FEF7EAFF32
:101B0400386108E0FEF7E6FF02463B69D31A022B70
:101B140001D9032367E10B4B5B6F03F00203002B36
:101B2400F0D01BE0094B00221A60FEF7D3FF3861A6
:101B34000EE0FEF7CFFF02463B69D31A022B07D90A
:101B4400032350E10038024000004742800E474220
:101B5400884B5B6F03F00203002BEAD17B681B68A0
:101B640003F00403002B00F097800023FB75814BE6
:101B74001B6C03F08053002B0FD10023BB607D4B03
:101B84001B6C7C4A43F0805313647A4B1B6C03F048
:101B94008053BB60BB680123FB75774B1B6803F460
:101BA4008073002B18D1744B1B68734A43F4807301
:101BB4001360FEF78FFF386108E0FEF78BFF0246E3
:101BC4003B69D31A022B01D903230CE16A4B1B682E
:101BD40003F48073002BF0D07B689B68012B06D143
:101BE400644B1B6F634A43F0010313671CE07B687B
:101BF4009B68052B0CD15F4B1B6F5E4A43F00403BB
:101C040013675C4B1B6F5B4A43F0010313670BE0E4
:101C1400584B1B6F574A23F001031367554B1B6F37
:101C2400544A23F0040313677B689B68002B15D088
:101C3400FEF750FF38610AE0FEF74CFF02463B69AD
:101C4400D31A41F28832934201D90323CBE0494BA2
:101C54001B6F03F00203002BEED014E0FEF73AFFF3
:101C640038610AE0FEF736FF02463B69D31A41F2B7
:101C74008832934201D90323B5E03E4B1B6F03F036
:101C84000203002BEED1FB7D012B05D1394B1B6CDC
:101C9400384A23F0805313647B689B69002B00F05F
:101CA400A180344B9B6803F00C03082B5CD07B6849
:101CB4009B69022B41D1314B00221A60FEF70AFFC7
:101CC400386108E0FEF706FF02463B69D31A022B8F
:101CD40001D9032387E0274B1B6803F00073002B13
:101CE400F0D17B68DA697B681B6A1A437B685B6A9C
:101CF4009B011A437B689B6A5B08013B1B041A43E4
:101D04007B68DB6A1B061B4913434B601B4B012298
:101D14001A60FEF7DFFE386108E0FEF7DBFE0246DC
:101D24003B69D31A022B01D903235CE0114B1B68D6
:101D340003F00073002BF0D054E0104B00221A6023
:101D4400FEF7C8FE386108E0FEF7C4FE02463B69B0
:101D5400D31A022B01D9032345E0064B1B6803F079
:101D64000073002BF0D13DE07B689B69012B07D108
:101D7400012338E000380240007000406000474210
:101D84001B4B5B68FB607B689B69012B28D0FB685D
:101D940003F480027B68DB699A4221D1FB6803F07B
:101DA4003F027B681B6A9A421AD1FA6847F6C073ED
:101DB40013407A68526A9201934211D1FB6803F48A
:101DC40040327B689B6A5B08013B1B049A4207D143
:101DD400FB6803F070627B68DB6A1B069A4201D0E1
:101DE400012300E0002318461837BD4680BD00BF1C
:101DF4000038024080B584B000AF786039607B68F9
:101E0400002B01D10123CCE0684B1B6803F00703CE
:101E14003A689A420CD9654B3A68D2B21A70634B4D
:101E24001B6803F007033A689A4201D00123B8E023
:101E34007B681B6803F00203002B20D07B681B68BF
:101E440003F00403002B05D0594B9B68584A43F414
:101E5400E05393607B681B6803F00803002B05D0F4
:101E6400534B9B68524A43F460439360504B9B68C6
:101E740023F0F0027B689B684D4913438B607B68B9
:101E84001B6803F00103002B44D07B685B68012BC3
:101E940007D1474B1B6803F40033002B19D10123EE
:101EA4007FE07B685B68022B03D07B685B68032B55
:101EB40007D13F4B1B6803F00073002B09D10123AA
:101EC4006FE03B4B1B6803F00203002B01D101239D
:101ED40067E0374B9B6823F003027B685B683449F7
:101EE40013438B60FEF7F6FDF8600AE0FEF7F2FD9F
:101EF4000246FB68D31A41F28832934201D9032384
:101F04004FE02B4B9B6803F00C027B685B689B00E3
:101F14009A42EBD1254B1B6803F007033A689A42B7
:101F24000CD2224B3A68D2B21A70204B1B6803F0D1
:101F340007033A689A4201D0012332E07B681B68A8
:101F440003F00403002B08D0194B9B6823F4E052E0
:101F54007B68DB68164913438B607B681B6803F05E
:101F64000803002B09D0124B9B6823F460427B6862
:101F74001B69DB000E4913438B6000F021F8024615
:101F84000B4B9B681B0903F00F030A49CB5C22FA35
:101F940003F3094A1360094B1B681846FEF756FD04
:101FA400002318461037BD4680BD00BF003C0240E8
:101FB40000380240C0210008000000200400002076
:101FC4002DE9B04F90B000AF00237B630023FB6387
:101FD40000233B630023BB63594B9B6803F00C0352
:101FE400082B0DD0082B00F2A180002B02D0042B6B
:101FF40003D09BE0534BBB639BE0534BBB6398E024
:102004004F4B5B6803F03F037B634D4B5B6803F40A
:102014008003002B28D04A4B5B689B0900223B625B
:102024007A623B6AC3F308000021474B03FB01F2C9
:10203400002300FB03F31344434AA0FB0212FA6299
:102044000A46BA62FA6A1344FB627B6B0022BB61E4
:10205400FA61D7E90623D7E90A01FEF7B9F802467F
:102064000B461346FB6353E0354B5B689B09002228
:102074003B617A613B69C3F3080A4FF0000B524697
:102084005B464FF000004FF00001590141EAD26174
:10209400500102460B46B2EB0A0863EB0B094FF002
:1020A40000024FF000034FEA891343EA98634FEAB2
:1020B4008812B2EB080463EB09054FF000024FF0FD
:1020C4000003EB0043EA5473E20014461D4614EB8C
:1020D4000A033B6045EB0B037B604FF000024FF0BB
:1020E4000003D7E9004529468B02214643EA915370
:1020F40021468A02104619467B6B0022BB60FA60B7
:10210400D7E90223FEF764F802460B461346FB6345
:102114000B4B5B681B0C03F0030301335B003B6355
:10212400FA6B3B6BB2FBF3F3BB6302E0054BBB639F
:1021340000BFBB6B18464037BD46BDE8B08F00BF3B
:10214400003802400024F40040787D0170B50D4D44
:102154000D4C641BA4100026A64209D10B4D0C4C57
:1021640000F020F8641BA4100026A64205D170BD1F
:1021740055F8043B98470136EEE755F8043B984779
:102184000136F2E7D8210008D8210008D821000838
:10219400DC21000802440346934200D1704703F84F
:1021A400011BF9E7F8B500BFF8BC08BC9E467047B0
:0C21B400F8B500BFF8BC08BC9E467047A0
:1021C00000000000000000000102030406070809E7
:0821D00034E0FF7F0100000074
:0421D800B901000841
:0421DC009501000861
:0C21E0000024F4001000000001000000CA
:04000005080009B92D
:00000001FF
