:020000040800F2
:1000000000000220C50800084D0800085308000839
:10001000590800085F080008650800080000000093
:100020000000000000000000000000006B08000855
:1000300079080008000000008708000895080008FB
:100040001509000815090008150900081509000818
:100050001509000815090008150900081509000808
:1000600015090008150900081509000815090008F8
:1000700015090008150900081509000815090008E8
:1000800015090008150900081509000815090008D8
:1000900015090008150900081509000815090008C8
:1000A00015090008150900081509000815090008B8
:1000B00015090008150900081509000815090008A8
:1000C0001509000815090008150900081509000898
:1000D0001509000815090008150900081509000888
:1000E0001509000815090008150900081509000878
:1000F0001509000815090008150900081509000868
:100100001509000815090008150900081509000857
:100110001509000815090008150900081509000847
:100120001509000815090008150900081509000837
:100130001509000815090008150900081509000827
:100140001509000815090008150900081509000817
:100150001509000815090008150900081509000807
:1001600015090008150900081509000815090008F7
:10017000150900081509000815090008000000000D
:0801800015090008150900082B
:1001880010B5054C237833B9044B13B10448AFF3C9
:1001980000800123237010BD0C0000200000000027
:1001A800C424000808B5034B1BB103490348AFF347
:1001B800008008BD0000000010000020C4240008D2
:1001C80053B94AB9002908BF00281CBF4FF0FF31B6
:1001D8004FF0FF3000F070B9ADF1080C6DE904CEB6
:1001E80000F006F8DDF804E0DDE9022304B070470A
:1001F8002DE9F047089E0D4604460F46002B4AD1CC
:100208008A42944665D9B2FA82F343B102FA03FCF2
:10021800C3F120029F4020FA02F217439C404FEAA4
:100228001C4E1FFA8CF5B7FBFEF1220C0EFB117762
:1002380042EA074201FB05F090420AD91CEB020290
:1002480001F1FF3780F01C81904240F21981023998
:100258006244121AA4B2B2FBFEF00EFB102244EA6A
:10026800024400FB05F5A5420AD91CEB040400F181
:10027800FF3280F00781A54240F2048164440238CD
:1002880040EA0140641B00211EB1DC400023C6E99E
:100298000043BDE8F0878B4208D9002E00F0ED80BE
:1002A8000021C6E900050846BDE8F087B3FA83F1E6
:1002B800002949D1AB4202D3824200F2F880841A65
:1002C80065EB030201201746002EE2D0C6E900477D
:1002D800DFE702B9FFDEB2FA82F3002B40F090802C
:1002E8008A1A4FEA1C471FFA8CFE0121B2FBF7F568
:1002F80007FB1520220C42EA00420EFB05F0904253
:1003080008D91CEB020205F1FF3802D2904200F234
:10031800CB804546121AA4B2B2FBF7F007FB1022B5
:1003280044EA02440EFB00FEA64508D91CEB04046F
:1003380000F1FF3202D2A64500F2BB801046A4EBC2
:100348000E0440EA05409FE7C1F120078B4022FADE
:1003580007FC4CEA030C05FA01F420FA07F3FD4008
:100368004FEA1C492343B5FBF9F81FFA8CFE09FB39
:1003780018551C0C44EA054408FB0EF5A54202FA80
:1003880001F200FA01F00BD91CEB040408F1FF3A62
:1003980080F08880A54240F28580A8F10208644474
:1003A800641B9DB2B4FBF9F309FB134445EA04440A
:1003B80003FB0EFEA64508D91CEB040403F1FF3528
:1003C8006CD2A6456AD9023B644443EA0843A3FBBE
:1003D8000295A4EB0E04AC42C846AE4656D353D0A1
:1003E80056B1B0EB080264EB0E0404FA07F7CA40F2
:1003F800CC401743C6E9007418460021BDE8F087D1
:10040800C3F1200102FA03FC20FA01F225FA01F1F6
:100418009D402A434FEA1C471FFA8CFEB1FBF7F0B8
:1004280007FB1015110C41EA054100FB0EF58D4242
:1004380004FA03F408D91CEB010100F1FF382FD2AC
:100448008D422DD902386144491B92B2B1FBF7F5B0
:1004580007FB151142EA014205FB0EF1914208D94A
:100468001CEB020205F1FF3816D2914214D9023D65
:100478006244521A45EA004138E73146304608E7F7
:100488003946E6E61046FBE64845A9D2B9EB02082C
:1004980065EB0C0E013BA3E74546EAE72B4694E7DC
:1004A8004046D1E7D0467BE7023D624432E7084642
:1004B8000AE76444023842E7704700BF80B500AFDE
:1004C80000F026FA00F026F800F018F900F080F89D
:1004D80000210E4801F0DCF904210C4801F0D8F99C
:1004E80008210A4801F0D4F90C21084801F0D0F994
:1004F800074B1222DA63064B48225A63044B182230
:100508009A63034B32221A64FEE700BF28000020DA
:100518000008004080B594B000AF07F120033022F6
:100528000021184601F09EFF07F10C0300221A6013
:100538005A609A60DA601A610023BB60224B1B6C18
:10054800214A43F0805313641F4B1B6C03F0805304
:10055800BB60BB6800237B601C4B1B681B4A43F4D1
:1005680080431360194B1B6803F480437B607B68EE
:1005780002233B620123FB6210233B630023BB631E
:1005880007F12003184600F0B7FC0346002B01D002
:1005980000F0CEF80F23FB6000233B6100237B6152
:1005A8000023BB610023FB6107F10C0300211846FF
:1005B80000F01AFF0346002B01D000F0B9F800BF85
:1005C8005037BD4680BD00BF003802400070004073
:1005D80080B58EB000AF07F1280300221A605A6078
:1005E8009A60DA6007F1200300221A605A603B1D06
:1005F80000221A605A609A60DA601A615A619A6138
:100608003C4B3D4A1A603B4B37225A60394B10220B
:100618009A60384B6422DA60364B00221A61354BF7
:1006280000229A61334801F08BF80346002B01D071
:1006380000F07EF84FF48053BB6207F12803194697
:100648002C4801F0AFFA0346002B01D000F070F8F7
:10065800284801F0C4F80346002B01D000F068F8E0
:1006680000233B6200237B6207F1200319462148DF
:1006780001F07CFE0346002B01D000F059F86023FE
:100688007B600023BB600023FB6000237B613B1D74
:1006980000221946174801F0C3F90346002B01D080
:1006A80000F046F83B1D04221946124801F0B8F93B
:1006B8000346002B01D000F03BF83B1D08221946E9
:1006C8000C4801F0ADF90346002B01D000F030F8DA
:1006D8003B1D0C221946074801F0A2F90346002BDE
:1006E80001D000F025F8034800F072F800BF383751
:1006F800BD4680BD280000200008004080B483B0BB
:1007080000AF00237B60094B1B6B084A43F00803CA
:100718001363064B1B6B03F008037B607B6800BF09
:100728000C37BD465DF8047B704700BF00380240B7
:1007380080B400AF72B600BFFEE7000080B483B09B
:1007480000AF00237B60104B5B6C0F4A43F480437F
:1007580053640D4B5B6C03F480437B607B68002320
:100768003B60094B1B6C084A43F080531364064BEB
:100778001B6C03F080533B603B6800BF0C37BD46E1
:100788005DF8047B704700BF0038024080B485B034
:1007980000AF78607B681B680B4A93420DD1002339
:1007A800FB600A4B1B6C094A43F004031364074BB4
:1007B8001B6C03F00403FB60FB6800BF1437BD46E5
:1007C8005DF8047B704700BF000800400038024015
:1007D80080B588B000AF786007F10C0300221A607A
:1007E8005A609A60DA601A617B681B68124A934201
:1007F8001ED10023BB60114B1B6B104A43F008034A
:1008080013630E4B1B6B03F00803BB60BB684FF40C
:100818007043FB6002233B6100237B610023BB61C3
:100828000223FB6107F10C031946054800F0C8F9DB
:1008380000BF2037BD4680BD000800400038024098
:10084800000C024080B400AFFEE780B400AFFEE7C2
:1008580080B400AFFEE780B400AFFEE780B400AF1D
:10086800FEE780B400AF00BFBD465DF8047B70476B
:1008780080B400AF00BFBD465DF8047B704780B40C
:1008880000AF00BFBD465DF8047B704780B500AF80
:1008980000F090F800BF80BD80B400AF064BD3F8DD
:1008A8008830054A43F47003C2F8883000BFBD465B
:1008B8005DF8047B704700BF00ED00E0DFF834D03E
:1008C800FFF7EAFF0C480D490D4A002302E0D4580F
:1008D800C4500433C4188C42F9D30A4A0A4C002382
:1008E80001E013600432A242FBD301F0C3FDFFF71D
:1008F800E5FD704700000220000000200C000020E9
:10090800FC2400080C00002074000020FEE7000012
:1009180080B500AF0E4B1B680D4A43F4007313609B
:100928000B4B1B680A4A43F480631360084B1B682F
:10093800074A43F480731360032000F00DF90F2079
:1009480000F008F8FFF7FAFE0023184680BD00BF44
:10095800003C024080B582B000AF7860124B1A6844
:10096800124B1B7819464FF47A73B3FBF1F3B2FBC1
:10097800F3F3184600F017F90346002B01D00123C2
:100988000EE07B680F2B0AD8002279684FF0FF3001
:1009980000F0EDF8064A7B681360002300E00123AD
:1009A80018460837BD4680BD00000020080000201A
:1009B8000400002080B400AF064B1B781A46064B93
:1009C8001B681344044A136000BFBD465DF8047BEE
:1009D800704700BF080000207000002080B400AFFE
:1009E800034B1B681846BD465DF8047B704700BF83
:1009F8007000002080B485B000AF78607B6803F099
:100A08000703FB600C4BDB68BB60BA684FF6FF035B
:100A18001340BB60FB681A02BB68134343F0BF6313
:100A280043F40033BB60044ABB68D36000BF14378B
:100A3800BD465DF8047B704700ED00E080B400AF70
:100A4800044BDB681B0A03F007031846BD465DF834
:100A5800047B704700ED00E080B483B000AF03462C
:100A68003960FB7197F90730002B0ADB3B68DAB273
:100A78000C4997F907301201D2B20B4483F80023CE
:100A88000AE03B68DAB20849FB7903F00F03043B3C
:100A98001201D2B20B441A7600BF0C37BD465DF87E
:100AA800047B704700E100E000ED00E080B489B00D
:100AB80000AFF860B9607A60FB6803F00703FB6178
:100AC800FB69C3F10703042B28BF0423BB61FB693F
:100AD8000433062B02D9FB69033B00E000237B614A
:100AE8004FF0FF32BB6902FA03F3DA43BB681A40DE
:100AF8007B699A404FF0FF317B6901FA03F3D943D0
:100B08007B680B40134318462437BD465DF8047BC9
:100B18007047000080B582B000AF78607B68013B09
:100B2800B3F1807F01D301230FE00A4A7B68013BC0
:100B380053600F214FF0FF30FFF78EFF054B002267
:100B48009A60044B07221A60002318460837BD46EE
:100B580080BD00BF10E000E080B582B000AF7860D3
:100B68007868FFF747FF00BF0837BD4680BD80B5EE
:100B780086B000AF0346B9607A60FB7300237B61DF
:100B8800FFF75CFF78617A68B9687869FFF78EFFCC
:100B9800024697F90F3011461846FFF75DFF00BF70
:100BA8001837BD4680BD80B582B000AF78607868E0
:100BB800FFF7B0FF034618460837BD4680BD000062
:100BC80080B489B000AF7860396000237B6100236E
:100BD8003B610023BB610023FB616BE10122FB69E0
:100BE80002FA03F37B613B681B687A6913403B6137
:100BF8003A697B699A4240F05A813B685B6803F026
:100C08000303012B05D03B685B6803F00303022B49
:100C180030D17B689B68BB61FB695B00032202FAE9
:100C280003F3DB43BA691340BB613B68DA68FB69CD
:100C38005B0002FA03F3BA691343BB617B68BA69C4
:100C48009A607B685B68BB610122FB6902FA03F367
:100C5800DB43BA691340BB613B685B681B0903F05F
:100C68000102FB6902FA03F3BA691343BB617B68AB
:100C7800BA695A603B685B6803F00303032B17D01B
:100C88007B68DB68BB61FB695B00032202FA03F344
:100C9800DB43BA691340BB613B689A68FB695B0038
:100CA80002FA03F3BA691343BB617B68BA69DA6075
:100CB8003B685B6803F00303022B23D1FB69DA0866
:100CC8007B68083253F82230BB61FB6903F00703E5
:100CD8009B000F2202FA03F3DB43BA691340BB619E
:100CE8003B681A69FB6903F007039B0002FA03F3E8
:100CF800BA691343BB61FB69DA087B680832B969D2
:100D080043F822107B681B68BB61FB695B00032208
:100D180002FA03F3DB43BA691340BB613B685B68C3
:100D280003F00302FB695B0002FA03F3BA69134399
:100D3800BB617B68BA691A603B685B6803F440333F
:100D4800002B00F0B4800023FB60604B5B6C5F4AB3
:100D580043F4804353645D4B5B6C03F48043FB6056
:100D6800FB685B4AFB699B08023352F82330BB617E
:100D7800FB6903F003039B000F2202FA03F3DB4332
:100D8800BA691340BB617B68524A93422BD07B6897
:100D9800514A934225D07B68504A93421FD07B68C2
:100DA8004F4A934219D07B684E4A934213D07B68CE
:100DB8004D4A93420DD07B684C4A934207D07B68DA
:100DC8004B4A934201D107230EE008230CE0062387
:100DD8000AE0052308E0042306E0032304E00223D5
:100DE80002E0012300E00023FA6902F00302920006
:100DF8009340BA691343BB613549FB699B080233C9
:100E0800BA6941F823203B4B9B68BB613B69DB43D4
:100E1800BA691340BB613B685B6803F48013002B1D
:100E280003D0BA693B691343BB61324ABB6993601B
:100E3800304BDB68BB613B69DB43BA691340BB617C
:100E48003B685B6803F40013002B03D0BA693B6965
:100E58001343BB61274ABB69D360264B5B68BB6100
:100E68003B69DB43BA691340BB613B685B6803F4C9
:100E78000033002B03D0BA693B691343BB611D4A99
:100E8800BB6953601B4B1B68BB613B69DB43BA6999
:100E98001340BB613B685B6803F48033002B03D0CD
:100EA800BA693B691343BB61124ABB691360FB69AA
:100EB8000133FB61FB690F2B7FF690AE00BF00BFCB
:100EC8002437BD465DF8047B704700BF00380240F8
:100ED80000380140000002400004024000080240BF
:100EE800000C0240001002400014024000180240AA
:100EF800001C0240003C014080B586B000AF78601D
:100F08007B68002B01D1012367E27B681B6803F033
:100F18000103002B75D0884B9B6803F00C03042B4E
:100F28000CD0854B9B6803F00C03082B12D1824B25
:100F38005B6803F48003B3F5800F0BD17E4B1B680D
:100F480003F40033002B5BD07B685B68002B57D120
:100F5800012342E27B685B68B3F5803F06D1764B9C
:100F68001B68754A43F4803313601DE07B685B6837
:100F7800B3F5A02F0CD1704B1B686F4A43F4802344
:100F880013606D4B1B686C4A43F4803313600BE0AD
:100F9800694B1B68684A23F480331360664B1B68EF
:100FA800654A23F4802313607B685B68002B13D0A9
:100FB800FFF714FD386108E0FFF710FD02463B69B2
:100FC800D31A642B01D9032307E25B4B1B6803F494
:100FD8000033002BF0D014E0FFF700FD386108E083
:100FE800FFF7FCFC02463B69D31A642B01D90323A3
:100FF800F3E1514B1B6803F40033002BF0D100E000
:1010080000BF7B681B6803F00203002B63D04A4BC8
:101018009B6803F00C03002B0BD0474B9B6803F035
:101028000C03082B1CD1444B5B6803F48003002B92
:1010380016D1414B1B6803F00203002B05D07B68D7
:10104800DB68012B01D00123C7E13B4B1B6823F070
:10105800F8027B681B69DB00374913430B603AE0F1
:101068007B68DB68002B20D0344B01221A60FFF725
:10107800B5FC386108E0FFF7B1FC02463B69D31ABA
:10108800022B01D90323A8E12B4B1B6803F00203B1
:10109800002BF0D0284B1B6823F0F8027B681B69F3
:1010A800DB00254913430B6015E0244B00221A602E
:1010B800FFF794FC386108E0FFF790FC02463B69B3
:1010C800D31A022B01D9032387E11B4B1B6803F0BA
:1010D8000203002BF0D17B681B6803F00803002B88
:1010E80036D07B685B69002B16D0154B01221A603D
:1010F800FFF774FC386108E0FFF770FC02463B69B3
:10110800D31A022B01D9032367E10B4B5B6F03F062
:101118000203002BF0D01BE0094B00221A60FFF7F6
:101128005DFC38610EE0FFF759FC02463B69D31AB3
:10113800022B07D9032350E1003802400000474240
:10114800800E4742884B5B6F03F00203002BEAD105
:101158007B681B6803F00403002B00F097800023D2
:10116800FB75814B1B6C03F08053002B0FD10023C0
:10117800BB607D4B1B6C7C4A43F0805313647A4BF5
:101188001B6C03F08053BB60BB680123FB75774B76
:101198001B6803F48073002B18D1744B1B68734AC7
:1011A80043F480731360FFF719FC386108E0FFF718
:1011B80015FC02463B69D31A022B01D903230CE123
:1011C8006A4B1B6803F48073002BF0D07B689B6824
:1011D800012B06D1644B1B6F634A43F0010313676D
:1011E8001CE07B689B68052B0CD15F4B1B6F5E4A2C
:1011F80043F0040313675C4B1B6F5B4A43F0010326
:1012080013670BE0584B1B6F574A23F00103136712
:10121800554B1B6F544A23F0040313677B689B6884
:10122800002B15D0FFF7DAFB38610AE0FFF7D6FB91
:1012380002463B69D31A41F28832934201D903230B
:10124800CBE0494B1B6F03F00203002BEED014E0F8
:10125800FFF7C4FB38610AE0FFF7C0FB02463B69B1
:10126800D31A41F28832934201D90323B5E03E4BA9
:101278001B6F03F00203002BEED1FB7D012B05D180
:10128800394B1B6C384A23F0805313647B689B6985
:10129800002B00F0A180344B9B6803F00C03082B53
:1012A8005CD07B689B69022B41D1314B00221A60CC
:1012B800FFF794FB386108E0FFF790FB02463B69B3
:1012C800D31A022B01D9032387E0274B1B6803F0AD
:1012D8000073002BF0D17B68DA697B681B6A1A43BC
:1012E8007B685B6A9B011A437B689B6A5B08013BCE
:1012F8001B041A437B68DB6A1B061B4913434B60BC
:101308001B4B01221A60FFF769FB386108E0FFF701
:1013180065FB02463B69D31A022B01D903235CE023
:10132800114B1B6803F00073002BF0D054E0104BF6
:1013380000221A60FFF752FB386108E0FFF74EFB06
:1013480002463B69D31A022B01D9032345E0064B19
:101358001B6803F00073002BF0D13DE07B689B69AC
:10136800012B07D1012338E000380240007000400B
:10137800600047421B4B5B68FB607B689B69012BE5
:1013880028D0FB6803F480027B68DB699A4221D18C
:10139800FB6803F03F027B681B6A9A421AD1FA681D
:1013A80047F6C07313407A68526A9201934211D18A
:1013B800FB6803F440327B689B6A5B08013B1B04B3
:1013C8009A4207D1FB6803F070627B68DB6A1B06F0
:1013D8009A4201D0012300E0002318461837BD4681
:1013E80080BD00BF0038024080B584B000AF78608F
:1013F80039607B68002B01D10123CCE0684B1B6866
:1014080003F007033A689A420CD9654B3A68D2B29E
:101418001A70634B1B6803F007033A689A4201D0BD
:101428000123B8E07B681B6803F00203002B20D07F
:101438007B681B6803F00403002B05D0594B9B689D
:10144800584A43F4E05393607B681B6803F0080331
:10145800002B05D0534B9B68524A43F4604393607A
:10146800504B9B6823F0F0027B689B684D491343FF
:101478008B607B681B6803F00103002B44D07B68FA
:101488005B68012B07D1474B1B6803F40033002B23
:1014980019D101237FE07B685B68022B03D07B684E
:1014A8005B68032B07D13F4B1B6803F00073002BCD
:1014B80009D101236FE03B4B1B6803F00203002BAB
:1014C80001D1012367E0374B9B6823F003027B6857
:1014D8005B68344913438B60FFF780FAF8600AE0D1
:1014E800FFF77CFA0246FB68D31A41F2883293422E
:1014F80001D903234FE02B4B9B6803F00C027B6858
:101508005B689B009A42EBD1254B1B6803F00703ED
:101518003A689A420CD2224B3A68D2B21A70204BDF
:101528001B6803F007033A689A4201D0012332E0AE
:101538007B681B6803F00403002B08D0194B9B68D9
:1015480023F4E0527B68DB68164913438B607B68A1
:101558001B6803F00803002B09D0124B9B6823F487
:1015680060427B681B69DB000E4913438B6000F007
:1015780021F802460B4B9B681B0903F00F030A492D
:10158800CB5C22FA03F3094A1360094B1B6818461F
:10159800FFF7E0F9002318461037BD4680BD00BFAD
:1015A800003C024000380240DC2400080000002013
:1015B800040000202DE9B04F90B000AF00237B63FA
:1015C8000023FB6300233B630023BB63594B9B68E9
:1015D80003F00C03082B0DD0082B00F2A180002B80
:1015E80002D0042B03D09BE0534BBB639BE0534BCF
:1015F800BB6398E04F4B5B6803F03F037B634D4B45
:101608005B6803F48003002B28D04A4B5B689B0976
:1016180000223B627A623B6AC3F308000021474B11
:1016280003FB01F2002300FB03F31344434AA0FB2E
:101638000212FA620A46BA62FA6A1344FB627B6BC8
:101648000022BB61FA61D7E90623D7E90A01FEF750
:10165800B7FD02460B461346FB6353E0354B5B6808
:101668009B0900223B617A613B69C3F3080A4FF08A
:10167800000B52465B464FF000004FF00001590145
:1016880041EAD261500102460B46B2EB0A0863EB0D
:101698000B094FF000024FF000034FEA891343EAA9
:1016A80098634FEA8812B2EB080463EB09054FF020
:1016B80000024FF00003EB0043EA5473E2001446C3
:1016C8001D4614EB0A033B6045EB0B037B604FF0B0
:1016D80000024FF00003D7E9004529468B02214656
:1016E80043EA915321468A02104619467B6B002231
:1016F800BB60FA60D7E90223FEF762FD02460B469B
:101708001346FB630B4B5B681B0C03F003030133AD
:101718005B003B63FA6B3B6BB2FBF3F3BB6302E02A
:10172800054BBB6300BFBB6B18464037BD46BDE8E1
:10173800B08F00BF003802400024F40040787D01DB
:1017480080B582B000AF78607B68002B01D101239F
:1017580041E07B6893F83D30DBB2002B06D17B6813
:10176800002283F83C207868FFF710F87B68022293
:1017780083F83D207B681A687B6804331946104655
:1017880000F0D8FA7B68012283F846207B680122A2
:1017980083F83E207B68012283F83F207B68012282
:1017A80083F840207B68012283F841207B6801226E
:1017B80083F842207B68012283F843207B6801225A
:1017C80083F844207B68012283F845207B68012246
:1017D80083F83D20002318460837BD4680BD80B5F4
:1017E80082B000AF78607B68002B01D1012341E013
:1017F8007B6893F83D30DBB2002B06D17B68002272
:1018080083F83C20786800F039F87B68022283F876
:101818003D207B681A687B6804331946104600F03F
:1018280089FA7B68012283F846207B68012283F8C5
:101838003E207B68012283F83F207B68012283F8E1
:1018480040207B68012283F841207B68012283F8CD
:1018580042207B68012283F843207B68012283F8B9
:1018680044207B68012283F845207B68012283F8A5
:101878003D20002318460837BD4680BD80B483B09C
:1018880000AF786000BF0C37BD465DF8047B704739
:1018980080B584B000AF786039603B68002B09D10F
:1018A8007B6893F83E30DBB2012B14BF0123002381
:1018B800DBB222E03B68042B09D17B6893F83F3008
:1018C800DBB2012B14BF01230023DBB215E03B6818
:1018D800082B09D17B6893F84030DBB2012B14BF89
:1018E80001230023DBB208E07B6893F84130DBB2C8
:1018F800012B14BF01230023DBB2002B01D00123ED
:101908007CE03B68002B04D17B68022283F83E20F0
:1019180013E03B68042B04D17B68022283F83F2044
:101928000BE03B68082B04D17B68022283F8402037
:1019380003E07B68022283F841207B681B68012250
:101948003968184600F0ECFC7B681B682D4A934206
:1019580004D07B681B682C4A934201D1012300E024
:101968000023002B07D07B681B685A6C7B681B68B8
:1019780042F400425A647B681B68224A934222D090
:101988007B681B68B3F1804F1DD07B681B681F4ABA
:10199800934218D07B681B681D4A934213D07B681A
:1019A8001B681C4A93420ED07B681B68164A9342F8
:1019B80009D07B681B68184A934204D07B681B686F
:1019C800164A934211D17B681B689B6803F0070392
:1019D800FB60FB68062B10D07B681B681A687B6865
:1019E8001B6842F001021A6007E07B681B681A68EE
:1019F8007B681B6842F001021A6000231846103702
:101A0800BD4680BD000001400004014000040040C4
:101A180000080040000C0040004001400018004051
:101A280080B586B000AFF860B9607A600023FB75B6
:101A3800FB6893F83C30012B01D10223AEE0FB6830
:101A4800012283F83C207B680C2B00F29F8001A2C6
:101A580052F823F0911A0008951B0008951B0008FE
:101A6800951B0008D11A0008951B0008951B000853
:101A7800951B0008131B0008951B0008951B000800
:101A8800951B0008531B0008FB681B68B9681846BB
:101A980000F0FCF9FB681B689A69FB681B6842F058
:101AA80008029A61FB681B689A69FB681B6822F048
:101AB80004029A61FB681B689969BB681A69FB682C
:101AC8001B680A439A6164E0FB681B68B96818469A
:101AD80000F04CFAFB681B689A69FB681B6842F4C3
:101AE80000629A61FB681B689A69FB681B6822F4AC
:101AF80080629A61FB681B689969BB681B691A0256
:101B0800FB681B680A439A6143E0FB681B68B96875
:101B1800184600F0A1FAFB681B68DA69FB681B68C5
:101B280042F00802DA61FB681B68DA69FB681B6827
:101B380022F00402DA61FB681B68D969BB681A697C
:101B4800FB681B680A43DA6123E0FB681B68B96815
:101B5800184600F0F5FAFB681B68DA69FB681B6831
:101B680042F40062DA61FB681B68DA69FB681B688B
:101B780022F48062DA61FB681B68D969BB681B695B
:101B88001A02FB681B680A43DA6102E00123FB754D
:101B980000BFFB68002283F83C20FB7D18461837FD
:101BA800BD4680BD80B584B000AF78603960002341
:101BB800FB737B6893F83C30012B01D10223B4E01E
:101BC8007B68012283F83C207B68022283F83D2051
:101BD8007B681B689B68BB60BB6823F07703BB60AE
:101BE800BB6823F47F43BB607B681B68BA689A6054
:101BF8003B681B68B3F5005F3ED0B3F5005F00F2A9
:101C08008780B3F5805F00F08680B3F5805F7FD86A
:101C1800702B1AD0702B7BD8602B50D0602B77D8C4
:101C2800502B3CD0502B73D8402B58D0402B6FD81A
:101C3800302B64D0302B6BD8202B60D0202B67D86A
:101C4800002B5CD0102B5AD062E07B6818683B6888
:101C580099683B685A683B68DB6800F041FB7B6821
:101C68001B689B68BB60BB6843F07703BB607B68FD
:101C78001B68BA689A604FE07B6818683B68996887
:101C88003B685A683B68DB6800F02AFB7B681B6886
:101C98009A687B681B6842F480429A603CE07B68E3
:101CA80018683B6859683B68DB681A4600F09EFA7A
:101CB8007B681B685021184600F0F7FA2CE07B6817
:101CC80018683B6859683B68DB681A4600F0BDFA3B
:101CD8007B681B686021184600F0E7FA1CE07B6807
:101CE80018683B6859683B68DB681A4600F07EFA5A
:101CF8007B681B684021184600F0D7FA0CE07B6827
:101D08001A683B681B681946104600F0CEFA03E0D3
:101D18000123FB7300E000BF7B68012283F83D20AC
:101D28007B68002283F83C20FB7B18461037BD46B1
:101D380080BD000080B485B000AF786039607B68F2
:101D48001B68FB607B68464A934213D07B68B3F1FB
:101D5800804F0FD07B68434A93420BD07B68424A3E
:101D6800934207D07B68414A934203D07B68404A3C
:101D7800934208D1FB6823F07003FB603B685B6803
:101D8800FA681343FB607B68354A93422BD07B6823
:101D9800B3F1804F27D07B68324A934223D07B68C7
:101DA800314A93421FD07B68304A93421BD07B68EC
:101DB8002F4A934217D07B682E4A934213D07B68F0
:101DC8002D4A93420FD07B682C4A93420BD07B68F4
:101DD8002B4A934207D07B682A4A934203D07B68F8
:101DE800294A934208D1FB6823F44073FB603B689F
:101DF800DB68FA681343FB60FB6823F080023B68EA
:101E08005B691343FB607B68FA681A603B689A68F1
:101E18007B68DA623B681A687B689A627B68104A5A
:101E2800934203D07B68124A934203D13B681A69F4
:101E38007B681A637B6801225A617B681B6903F01F
:101E48000103012B05D17B681B6923F001027B6824
:101E58001A6100BF1437BD465DF8047B704700BFA8
:101E6800000001400004004000080040000C004051
:101E78000004014000400140004401400048014086
:101E880000180040001C00400020004080B487B0CB
:101E980000AF786039607B681B6A7B617B681B6A6E
:101EA80023F001027B681A627B685B683B617B6890
:101EB8009B69FB60FB6823F07003FB60FB6823F001
:101EC8000303FB603B681B68FA681343FB607B698C
:101ED80023F002037B613B689B687A6913437B614B
:101EE8007B68204A934203D07B681F4A93420CD1F7
:101EF8007B6923F008037B613B68DB687A691343DD
:101F08007B617B6923F004037B617B68154A9342FC
:101F180003D07B68144A934211D13B6923F4807340
:101F28003B613B6923F400733B613B685B693A6939
:101F380013433B613B689B693A6913433B617B6888
:101F48003A695A607B68FA689A613B685A687B68A4
:101F58005A637B687A691A6200BF1C37BD465DF810
:101F6800047B7047000001400004014080B487B042
:101F780000AF786039607B681B6A7B617B681B6A8D
:101F880023F010027B681A627B685B683B617B68A0
:101F98009B69FB60FB6823F4E043FB60FB6823F468
:101FA8004073FB603B681B681B02FA681343FB60C5
:101FB8007B6923F020037B613B689B681B017A697E
:101FC80013437B617B68224A934203D07B68214A92
:101FD80093420DD17B6923F080037B613B68DB680A
:101FE8001B017A6913437B617B6923F040037B61A2
:101FF8007B68174A934203D07B68164A934213D1F1
:102008003B6923F480633B613B6923F400633B61D4
:102018003B685B699B003A6913433B613B689B697A
:102028009B003A6913433B617B683A695A607B6855
:10203800FA689A613B685A687B689A637B687A6930
:102048001A6200BF1C37BD465DF8047B704700BFAD
:10205800000001400004014080B487B000AF786000
:1020680039607B681B6A7B617B681B6A23F480721A
:102078007B681A627B685B683B617B68DB69FB6035
:10208800FB6823F07003FB60FB6823F00303FB602D
:102098003B681B68FA681343FB607B6923F4007391
:1020A8007B613B689B681B027A6913437B617B6891
:1020B800214A934203D07B68204A93420DD17B6921
:1020C80023F400637B613B68DB681B027A69134376
:1020D8007B617B6923F480637B617B68164A93424A
:1020E80003D07B68154A934213D13B6923F480538C
:1020F8003B613B6923F400533B613B685B691B010F
:102108003A6913433B613B689B691B013A69134376
:102118003B617B683A695A607B68FA68DA613B68B8
:102128005A687B68DA637B687A691A6200BF1C3771
:10213800BD465DF8047B7047000001400004014083
:1021480080B487B000AF786039607B681B6A3B61F8
:102158007B681B6A23F480527B681A627B685B6821
:102168007B617B68DB69FB60FB6823F4E043FB6011
:10217800FB6823F44073FB603B681B681B02FA682A
:102188001343FB603B6923F400533B613B689B6846
:102198001B033A6913433B617B68124A934203D09D
:1021A8007B68114A934209D17B6923F480437B61A0
:1021B8003B685B699B017A6913437B617B687A6939
:1021C8005A607B68FA68DA613B685A687B681A6407
:1021D8007B683A691A6200BF1C37BD465DF8047B0C
:1021E800704700BF000001400004014080B487B080
:1021F80000AFF860B9607A60FB681B6A7B61FB68B6
:102208001B6A23F00102FB681A62FB689B693B6149
:102218003B6923F0F0033B617B681B013A69134378
:102228003B617B6923F00A037B617A69BB681343CE
:102238007B61FB683A699A61FB687A691A6200BF38
:102248001C37BD465DF8047B704780B487B000AF8B
:10225800F860B9607A60FB681B6A7B61FB681B6A7F
:1022680023F01002FB681A62FB689B693B613B69BB
:1022780023F470433B617B681B033A6913433B615A
:102288007B6923F0A0037B61BB681B017A69134358
:102298007B61FB683A699A61FB687A691A6200BFD8
:1022A8001C37BD465DF8047B704780B485B000AF2D
:1022B800786039607B689B68FB60FB6823F070037B
:1022C800FB603A68FB68134343F00703FB607B68D5
:1022D800FA689A6000BF1437BD465DF8047B704702
:1022E80080B487B000AFF860B9607A603B60FB6883
:1022F8009B687B617B6923F47F437B613B681A029F
:102308007B681A43BB6813437A6913437B61FB6894
:102318007A699A6000BF1C37BD465DF8047B704738
:1023280080B487B000AFF860B9607A60BB6803F02A
:102338001F03012202FA03F37B61FB681A6A7B69B7
:10234800DB431A40FB681A62FB681A6ABB6803F031
:102358001F03796801FA03F31A43FB681A6200BF86
:102368001C37BD465DF8047B7047000080B485B01B
:1023780000AF786039607B6893F83C30012B01D15D
:1023880002235AE07B68012283F83C207B68022202
:1023980083F83D207B681B685B68FB607B681B6873
:1023A8009B68BB60FB6823F07003FB603B681B689D
:1023B800FA681343FB607B681B68FA685A607B689D
:1023C8001B68214A934222D07B681B68B3F1804F77
:1023D8001DD07B681B681D4A934218D07B681B6818
:1023E8001B4A934213D07B681B681A4A93420ED04B
:1023F8007B681B68184A934209D07B681B68174A98
:10240800934204D07B681B68154A93420CD1BB6881
:1024180023F08003BB603B685B68BA681343BB600A
:102428007B681B68BA689A607B68012283F83D2044
:102438007B68002283F83C20002318461437BD46E9
:102448005DF8047B704700BF0000014000040040B5
:1024580000080040000C004000040140004001401A
:102468000018004002440346934200D1704703F825
:10247800011BF9E770B50D4D0D4C641BA410002627
:10248800A64209D10B4D0C4C00F018F8641BA4109F
:102498000026A64205D170BD55F8043B9847013681
:1024A800EEE755F8043B98470136F2E7F4240008B4
:1024B800F4240008F4240008F8240008F8B500BF44
:1024C800F8BC08BC9E467047F8B500BFF8BC08BC0D
:0424D8009E46704765
:1024DC0000000000000000000102030406070809C8
:0824EC000CDDFF7F0100000080
:0424F400AD0100082E
:0424F800890100084E
:0C24FC000024F4001000000001000000AB
:04000005080008C522
:00000001FF
